:100000000C942A000C9458010C9447000C9447005F
:100010000C9447000C9447000C9447000C94210169
:100020000C9447000C9447000C9447000C94470034
:100030000C9447000C9447000C9447000C94470024
:100040000C9447000C9447000C9447000C94470014
:100050000C94470011241FBECFE5D8E0DEBFCDBF12
:1000600010E0A0E6B0E0E8E9F3E002C005900D92F0
:10007000A038B107D9F720E0A0E8B0E001C01D9298
:10008000A138B207E1F70E948F010C94CA010C94C9
:10009000000080E887B986B1876886B90895369AE6
:1000A0003499FECF64B185B170E0782B072E000C37
:1000B000880B990B0895C39A8FEC97E00197F1F79D
:1000C00000C00000C3988FEC97E00197F1F700C0E3
:1000D00000000895CF93C82F882314F0DF9801C043
:1000E000DF9AC6FD02C0DE9801C0DE9AC5FD02C0DF
:1000F000DD9801C0DD9AC4FD02C0DC9801C0DC9A25
:100100000E945B00C3FD02C0DF9801C0DF9AC2FD00
:1001100002C0DE9801C0DE9AC1FD02C0DD9801C0B8
:10012000DD9AC0FD02C0DC9801C0DC9A0E945B0031
:10013000CF910895C1980E946A000895C19A0E94C3
:100140006A000895CF93DF93EC018881882331F012
:1001500021960E949E0089918111FBCFDF91CF9162
:1001600008958AB3806F8ABB87B38E6087BBDF98A0
:10017000DE98DD9ADC9A0E945B00DF98DE98DD9ABB
:10018000DC980E945B008FE097E20197F1F700C0D6
:100190000000C29882E00E949A0088E20E949A00C1
:1001A00081E00E949A008CE00E949A0086E00E9402
:1001B0009A0080E80E949A008FE39CE90197F1F78A
:1001C00000C000000895CF9380918000811134C059
:1001D00081E0809380000FB607FE03C0F894C0E072
:1001E00001C0C1E0829B1AC080E80E949A0080E6AC
:1001F00090E00E94A20085EC0E949A0092B380E2F7
:10020000892782BB959B05C089E690E00E94A200E9
:100210000CC08BE790E00E94A20007C080E80E941B
:100220009A008DE690E00E94A20010928000C11119
:1002300005C0789481E003C080E001C081E0CF91E7
:1002400008951F920F920FB60F9211242F933F9390
:100250004F935F936F937F938F939F93AF93BF93CE
:10026000EF93FF930E944F009B01AC01A4E6B0E026
:100270000E94B001DC01CB01072E7AE0B695A7956C
:10028000979587957A95D1F7702D0E94AC01FF91D3
:10029000EF91BF91AF919F918F917F916F915F91FE
:1002A0004F913F912F910F900FBE0F901F90189577
:1002B0001F920F920FB60F9211242F933F934F93DB
:1002C0005F936F937F938F939F93AF93BF93EF93BE
:1002D000FF930E94E300FF91EF91BF91AF919F9137
:1002E0008F917F916F915F914F913F912F910F90DF
:1002F0000FBE0F901F90189585B7816085BF8BB793
:1003000080648BBF089589B7806189BF8DE89BE5C4
:100310009BBD8ABD1DBC1CBC8DE08EBD08950E9496
:1003200049000E947C010E94B1000E94A3010E942A
:1003300083018D9A789480EC0E949A0086E790E081
:100340000E94A200FFCF83E389B98AB188618AB98C
:1003500080B5866880BD08955D9BFECF8CB90895F9
:100360000E94BB01A59F900DB49F900DA49F800D8E
:10037000911D11240895A29FB001B39FC001A39FB6
:10038000700D811D1124911DB29F700D811D1124CE
:08039000911D0895F894FFCFC0
:100398005072657373656420004F4E200020202042
:1003A8002020202020004C45443A204F464600009B
:00000001FF
